:020000040800F2
:1000000000200020210200084104000843040008E9
:1000100000000000000000000000000000000000E0
:10002000000000000000000000000000450400087F
:100030000000000000000000470400084904000818
:1000400071020008710200087102000871020008C4
:1000500071020008710200087102000871020008B4
:1000600071020008710200087102000871020008A4
:10007000710200087102000800000000710200080F
:1000800000000000710200080000000000000000F5
:1000900071020008000000007102000871020008EF
:1000A0007102000871020008710200087102000864
:1000B0007102000871020008710200087102000854
:1000C00010B5064C2378002B07D1054B002B02D02E
:1000D000044800E000BF0123237010BD040000208D
:1000E00000000000FC0E0008044B10B5002B03D0EC
:1000F0000349044800E000BF10BDC04600000000F6
:1001000008000020FC0E0008002243088B4274D334
:1001100003098B425FD3030A8B4244D3030B8B4208
:1001200028D3030C8B420DD3FF22090212BA030C11
:100130008B4202D31212090265D0030B8B4219D3F2
:1001400000E0090AC30B8B4201D3CB03C01A524112
:10015000830B8B4201D38B03C01A5241430B8B425A
:1001600001D34B03C01A5241030B8B4201D30B0343
:10017000C01A5241C30A8B4201D3CB02C01A52416A
:10018000830A8B4201D38B02C01A5241430A8B422D
:1001900001D34B02C01A5241030A8B4201D30B0216
:1001A000C01A5241CDD2C3098B4201D3CB01C01A30
:1001B000524183098B4201D38B01C01A524143093A
:1001C0008B4201D34B01C01A524103098B4201D328
:1001D0000B01C01A5241C3088B4201D3CB00C01A95
:1001E000524183088B4201D38B00C01A524143080D
:1001F0008B4201D34B00C01A5241411A00D2014632
:10020000524110467047FFE701B5002000F006F8A4
:1002100002BDC0460029F7D076E770477047C04658
:100220000D488546002103E00C4B5B5843500431D8
:100230000B480C4B42189A42F6D30B4A02E00023BB
:1002400013600432094B9A42F9D300F003F900F02D
:1002500031FE00F04DF8FEE700200020380F0008C6
:1002600000000020040000200400002024000020E2
:10027000FEE700001C491D4A0B6810B51A40802398
:100280001B0113430B60102394B00693A0220F3B75
:100290000D930023120206A80E930F92109300F004
:1002A0009FFA011E00D0FEE70F23029003900490F6
:1002B000059001A8019300F03FFD041E00D0FEE769
:1002C00000F0F2FDFA218900FFF71EFF00F05EF951
:1002D000042000F075F9012022002100404200F0C6
:1002E00025F914B010BDC04600700040FFE7FFFFC5
:1002F00070B50125022688B000F0EEF8FFF7BAFFCE
:10030000A0203D4B3821DA6AC0052A43DA62DA6A56
:1003100000242A400192019ADA6A3243DA62DB6AE7
:10032000002233400293029B00F01AFAA0203823E7
:1003300003A9C005039305940694049500F054F9AD
:10034000082303A92D4803930494059500F04CF964
:100350008023049403A92948A0240393059600F060
:1003600043F9E4050821254800F0F4F900282BD1D1
:100370008021224800F0EEF90500012824D1020076
:100380000821200000F0ECF92A001021200000F0E4
:10039000E7F92A002021200000F0E2F9642000F0B3
:1003A000B9F820000022082100F0DAF9200000222C
:1003B000102100F0D5F920000022202100F0D0F912
:1003C000642000F0A7F8CDE780210C4800F0C2F9C6
:1003D0000500012807D102000821200000F0C0F923
:1003E0002A001021D7E70821044800F0B3F90028BB
:1003F000D7D101220821CEE70010024000040050AE
:1004000001220E4B10B5596B05200A435A63802216
:10041000996B52050A439A6300224042110000F092
:1004200085F8002202201100404200F07FF80022EF
:1004300001201100404200F079F810BD0010024088
:100440007047FEE77047704710B500F055F800F0B0
:10045000C6F810BD8022104B520019680A431A607A
:10046000DA680E490A40DA601A680D490A4001212B
:100470001A609A688A439A601A680A490A401A60A0
:10048000DA6809490A40DA6000221A618022074BC3
:1004900012059A607047C046001002400C40FF8869
:1004A000F6FFF6FEFFFFFBFFFFFF02FF00ED00E09F
:1004B000FA21084B10B5890004001868FFF724FEE4
:1004C00000F064F8012000222100404200F02EF8E4
:1004D000002010BD000000204023064A10B511681E
:1004E00000200B431360FFF7E3FFFFF789FF0020B5
:1004F00010BDC04600200240024A13680133136059
:100500007047C04620000020014B18687047C04665
:100510002000002013B50190FFF7F6FF0400FFF75D
:10052000F3FF019B001B9842F9D313BD70B58901FD
:10053000002814DA0F23C0B20340083B114A9B087D
:100540009B009B18032210409040FC321500114084
:1005500085408140DC69AC432143D96170BD0325EE
:1005600083082840A840FC352E00074A9B009B18B2
:10057000C02286402940814092009C58B4432143C8
:100580009950EBE700ED00E000E100E0094A431E6E
:10059000012093420DD8C021074A08485360036ADE
:1005A00009061B021B0A0B4303620020072390600D
:1005B00013607047FFFFFF0010E000E000ED00E077
:1005C000054B1A68042802D11043186070470421B3
:1005D0008A431A60FAE7C04610E000E0704710B5A1
:1005E000FFF7FCFF10BD0000F0B5534A0B688218FE
:1005F000541EA24185B00193002305320392019A53
:10060000DA4001D105B0F0BD01259D40019A2A4094
:10061000009200D18DE04A689446102264469443CB
:100620002200013C022A1FD107240F271C40A400EE
:10063000A740DA0892008218166ABE430F69A740E5
:100640003E43166203245E00B4408268A243CC6835
:10065000B440224382606246D206D20F9A40446878
:10066000AC432243426001E0012CEBD90326340065
:100670005D00AC406246E4433240AA400768274030
:100680003A430260C26814408A68AA401443624632
:10069000C460D2004DD50125284C0F27626B2A4338
:1006A0001D003540AD00AF406263254A9C08A400A0
:1006B000A418A268BA43A0270292FF050022B842FC
:1006C0000CD0204F0132B84208D01F4F0132B8423F
:1006D00004D01E4F3200B84200D0039AAA406746A9
:1006E000029D2A43A2601A4A009C1668009DE443BA
:1006F0003543FF0301D43500254067461560566831
:10070000009D3543BF0301D4350025406746556041
:100710009668009D3543FF0201D4350025406746A9
:100720009560D568009E2E43BF0201D425402E005F
:10073000D660013363E7C04600E4FFAF001002401B
:10074000000001400004005000080050000C005060
:100750000004014000690840411E8841C0B2704752
:10076000002A01D0816170478162FCE7F022174BBB
:1007700030B5D96811420BD000230121144802681A
:100780008A431A430260006808405840084030BD60
:100790008021C0229D6B49050E4C52010D420AD0AA
:1007A00023681A40C0235B019A42E5D10A4BC01866
:1007B00043424341E1E79D6B294399632168074C1C
:1007C0000A40996B21409963ECE7C0460010024053
:1007D00000200240007000400040FFFFFFFFFFEFDD
:1007E000F0B5036885B00400DB074ED423689B078F
:1007F00000D59FE02368DB0635D50C23BC4DEA68A5
:100800001A4200D0E9E02B689B0502D5E369002B72
:1008100050D0E0226B68606A12021340984200D800
:10082000C9E0FFF7A3FF002844D16B68B14A134029
:10083000626A13436B606A68236A12021B06120A1B
:1008400013436B60636AEA68590B802301311B0212
:100850008B401206A849120F8A5C0020D340A74A99
:100860001360FFF725FE23681B0700D5ECE0236823
:100870005B0700D50FE123689B0600D590E1A16AD4
:10088000002900D0C0E1002015E00C21984DEB6854
:100890000B40082B08D08023EA685B020A408A429A
:1008A0000BD1EA681A4208D02B689B039ED5636877
:1008B000002B9BD1012005B0F0BD62689A4212D195
:1008C0002A6813432B60FFF71FFE80260700B6023D
:1008D0002B68334200D089E7FFF716FEC01B64285F
:1008E000F6D90320E7E7A021C9028A4205D1802278
:1008F0002968D2020A432A60E2E729688048014059
:10090000296029680B400393039B7E492B680B40A9
:100910002B60002AD7D1FFF7F7FD80260700B6022B
:100920002B68334200D161E7FFF7EEFDC01B64285E
:10093000F6D9D6E70C216E4DEA680A40042A06D0A3
:10094000EB680B408B4210D1EB68DB030DD42B68B6
:100950005B0702D5E368012BACD16A6823696A4959
:100960001B020A4013436B6044E7E2682B68002ACD
:1009700010D009218B4313432B60FFF7C5FD0426DC
:1009800007002B683342E8D1FFF7BEFDC01B0228E9
:10099000F7D9A6E7012293432B60FFF7B5FD0426A4
:1009A00007002B68334200D124E7FFF7ADFDC01BE1
:1009B0000228F6D995E76B684E4A134003436B60F3
:1009C0006A68236A12021B06120A13436B60FFF760
:1009D000CDFE002800D135E76CE7E369002B20D07D
:1009E00080232A685B0013432B60FFF78DFD802670
:1009F0000700B6002B6833420DD06B683D4A1340A8
:100A0000626A13436B606A68236A12021B06120A49
:100A100013436B6027E7FFF777FDC01B0228E9D976
:100A20005FE72B68394A802613402B60FFF76CFD87
:100A30000700B6002B68334200D114E7FFF764FDCE
:100A4000C01B0228F6D94CE762690123284D002A11
:100A500010D02A6D022613432B65FFF755FD0700C2
:100A60002B6D334200D002E7FFF74EFDC01B02287A
:100A7000F6D936E72A6D02269A432A65FFF744FD28
:100A800007002B6D334200D1F1E6FFF73DFDC01B9F
:100A90000228F6D925E780230021154D5B05AA6BB6
:100AA00000911A4204D1AA6B1343AB630123009354
:100AB0008027174E7F0033683B4208D08022A3680E
:100AC0005200934226D12A6D13432B6547E03368C9
:100AD0003B433360FFF718FD019033683B42EDD193
:100AE000FFF712FD019BC01A6428F6D9F9E6C0464B
:100AF00000100240FF1FFFFF140F0008000000203D
:100B0000FFFFFEFFFFFFFBFFFFE0FFFFFFFEFFFF1A
:100B100000700040002B16D12B6D604A80271340D7
:100B20002B652B6D5E4ABF0013402B65FFF7ECFC75
:100B300006002B6D3B422AD0FFF7E6FC594B801B89
:100B40009842F6D9CDE6A021C9008B420DD1802371
:100B5000296DDB000B432B652B6D1A432A65FFF7CC
:100B6000D3FC80270600BF000EE02B6D4B4A1340DC
:100B70002B652B6D4A4A1340A7E7FFF7C5FC494B8D
:100B8000801B984200D9ACE62B6D3B42F5D0009B10
:100B9000012B00D06FE6AB6B434A1340AB636AE6B0
:100BA000A1690123414D424A002918D0A9680226B3
:100BB0001943A960696B0B436B638023116A9B0126
:100BC0000B431362FFF7A0FC0700AB68334200D071
:100BD00055E6FFF799FCC01B0228F6D981E6A96803
:100BE00002269943A960136A32490B401362FFF74A
:100BF0008BFC0700AB68334200D140E6FFF784FC72
:100C0000C01B0228F6D96CE60C22284D0120EB68A7
:100C10001340934200D14EE62B68274A13402B60C5
:100C200002292BD1FFF770FC80260700B6042B6841
:100C300033421DD1216BE36AEA680B431F490A4026
:100C40001343626B80241343EB6080232A685B04A8
:100C500013432B60FFF758FC0600A4042B682342C3
:100C600000D010E6FFF750FC801B0228F6D938E6CA
:100C7000FFF74AFCC01B0228D9D932E6FFF744FC33
:100C800080240600A4042B68234200D1FBE5FFF773
:100C90003BFC801B0228F6D923E6C046FFFEFFFF7F
:100CA000FFFBFFFF88130000FFFFFFEF0010024073
:100CB00000000140FFDFFFFFFFFFFFFEFFFF02FF1D
:100CC0000C22184B10B5D9680A40082A26D00C2AE5
:100CD00006D0042A1AD11B68DB0621D4124810BDA5
:100CE0008A021248120F825C0902D868890F01310A
:100CF000C00304D50E485043FFF706FAEFE71B6820
:100D0000DB0601D50B48F6E70748F4E780205B686F
:100D100000021B045B0F01339840E0E70448DEE764
:100D20000448DCE7001002400024F400240F00080F
:100D300000127A0000093D00F7B50122534C06006D
:100D40002368019113408B4228D33268930731D432
:100D5000D30737D40123226801991A40914200D267
:100D600085E032684A4C530700D587E0130706D563
:100D7000E26833694749DB000A401343E360FFF749
:100D80009FFFE368444A1B061B0FD35CD840434BCC
:100D900018600020FFF78CFB00200AE0236801990F
:100DA00093430B43236023681340019A9A42CCD0AB
:100DB0000120FEBDF0203649CB688343B068034371
:100DC000CB60C5E7324D72682B68022A19D19B03AC
:100DD000EED50321EB688B431343EB60FFF794FBE5
:100DE00073680700022B19D10C22EB681340082B03
:100DF000B0D0FFF789FB2A4BC01B9842F4D90320DF
:100E0000D7E7032A02D19B01E3D4D1E7012A02D11B
:100E10005B07DED4CCE79B05DBD4C9E7032B0CD101
:100E20000C22EB681340934200D193E7FFF76CFB71
:100E30001B4BC01B9842F3D9E1E7012B11D00C22C8
:100E4000EB68134200D185E7FFF75EFB144BC01B34
:100E50009842F4D9D3E7FFF757FB114BC01B9842D8
:100E6000CDD80C22EB681340042BF4D172E7226832
:100E70009A43226022681A429AD172E7E3680949CC
:100E80000B40F1680B43E36070E7C046002002406E
:100E900000100240FFC7FFFF140F000800000020F1
:100EA00088130000FFF8FFFF014B18687047C04629
:100EB0000000002070B500260C4D0D4C641BA410E2
:100EC000A64209D1002600F019F80A4D0A4C641B0D
:100ED000A410A64205D170BDB300EB589847013667
:100EE000EEE7B300EB5898470136F2E7300F000801
:100EF000300F0008300F0008340F0008F8B5C04666
:100F0000F8BC08BC9E467047F8B5C046F8BC08BCA3
:040F10009E46704742
:100F140000000000000000000102030406070809A5
:0C0F2400030406080C1018203000000028
:040F3000E9000008CC
:040F3400C1000008F0
:040F380080841E0093
:0400000508000221CC
:00000001FF
