:020000040800F2
:1000000000200020691A0008F9190008FB190008EF
:1000100000000000000000000000000000000000E0
:10002000000000000000000000000000FD190008B2
:100030000000000000000000FF190008011A00087D
:10004000B91A0008B91A0008B91A0008B91A000844
:10005000B91A0008B91A0008B91A0008B91A000834
:10006000B91A0008B91A0008B91A0008B91A000824
:10007000B91A0008B91A000800000000B91A0008EF
:1000800000000000B91A0008000000000000000095
:10009000B91A000800000000B91A0008B91A0008CF
:1000A000B91A0008B91A0008B91A0008B91A0008E4
:1000B000B91A0008B91A0008B91A0008B91A0008D4
:1000C00010B5064C2378002B07D1054B002B02D02E
:1000D000044800E000BF0123237010BD040000208D
:1000E00000000000301B0008044B10B5002B03D0AB
:1000F0000349044800E000BF10BDC04600000000F6
:1001000008000020301B00080023C25C0133002AD5
:10011000FBD1581E704702780B78002A03D00130BB
:1001200001319A42F7D0D01A7047000002B47146EC
:1001300049084900095C49008E4402BC7047C0462A
:10014000002243088B4274D303098B425FD3030A16
:100150008B4244D3030B8B4228D3030C8B420DD329
:10016000FF22090212BA030C8B4202D312120902B7
:1001700065D0030B8B4219D300E0090AC30B8B42F5
:1001800001D3CB03C01A5241830B8B4201D38B03A3
:10019000C01A5241430B8B4201D34B03C01A524148
:1001A000030B8B4201D30B03C01A5241C30A8B428B
:1001B00001D3CB02C01A5241830A8B4201D38B0276
:1001C000C01A5241430A8B4201D34B02C01A52411A
:1001D000030A8B4201D30B02C01A5241CDD2C3098C
:1001E0008B4201D3CB01C01A524183098B4201D308
:1001F0008B01C01A524143098B4201D34B01C01AF3
:10020000524103098B4201D30B01C01A5241C3086A
:100210008B4201D3CB00C01A524183088B4201D3D9
:100220008B00C01A524143088B4201D34B00C01AC5
:100230005241411A00D20146524110467047FFE731
:1002400001B5002000F006F802BDC0460029F7D035
:1002500076E770477047C046002B11D1002A0FD1B6
:10026000002900D1002802D00021C943081C07B48E
:10027000024802A14018029003BDC046D9FFFFFF0B
:1002800003B4684601B5029800F006F8019B9E464B
:1002900002B00CBC7047C046F0B557464E464546C6
:1002A000DE46E0B5040083B00D00924699468B42CD
:1002B0002FD82CD04946504600F0AEF82900060051
:1002C000200000F0A9F8331A9846203B9B4600D541
:1002D00074E053465A4693401F00534642469340AB
:1002E0001E00AF4229D826D05B46A41BBD41002B7F
:1002F00000DA79E0002200230092019301235A469C
:1003000093400193012342469340009319E08242B7
:10031000D0D900220023009201930C9B002B01D026
:100320001C605D600098019903B03CBC9046994602
:10033000A246AB46F0BDA342D6D9002200230092CC
:1003400001934346002BE8D0FB0772081A43464648
:100350007B080EE0AB4201D1A2420CD8A41A9D4109
:10036000012024196D410021013E24184D41002E29
:1003700006D0AB42EED9013E24196D41002EF8D1D2
:100380005B460098019900196941002B22DB2B0084
:100390005A46D3402A004446E2401C005B46150002
:1003A000002B2CDB26009E40330026004746BE4033
:1003B0003200801A994100900191AEE74246202315
:1003C0009B1A5246DA40414613004A468A401700BB
:1003D0001F4382E7424620239B1A2A0046469A4042
:1003E0002300F3401343D5E74246202300219B1A04
:1003F0000022009101920122DA40019282E74246F6
:10040000202326009B1ADE402F00B4469740664604
:100410003B003343C9E7C04610B5002903D100F0C3
:1004200007F8203002E0081C00F002F810BDC046BA
:100430001C2101231B04984201D3000C10391B0A14
:10044000984201D3000A08391B09984201D30009D8
:10045000043902A2105C40187047C046040302022F
:10046000010101010000000000000000FA21084B1A
:1004700010B5890004001868FFF762FE00F058F814
:10048000012000222100404200F022F8002010BD8F
:10049000000000204023064A10B5116800200B43DD
:1004A0001360FFF7E3FF01F067FA002010BDC046BC
:1004B00000200240024A1368013313607047C046AF
:1004C00020000020014B18687047C0462000002023
:1004D00070B58901002814DA0F23C0B20340083B2D
:1004E000114A9B089B009B18032210409040FC324D
:1004F0001500114085408140DC69AC432143D9613E
:1005000070BD032583082840A840FC352E00074A0B
:100510009B009B18C02286402940814092009C5835
:10052000B44321439950EBE700ED00E000E100E027
:10053000094A431E012093420DD8C021074A0848AA
:100540005360036A09061B021B0A0B430362002067
:100550000723906013607047FFFFFF0010E000E08A
:1005600000ED00E0054B1A68042802D11043186022
:10057000704704218A431A60FAE7C04610E000E0A1
:10058000704710B5FFF7FCFF10BD0000F0B5534AEF
:100590000B688218541EA24185B0019300230532D6
:1005A0000392019ADA4001D105B0F0BD01259D40CA
:1005B000019A2A40009200D18DE04A6894461022A8
:1005C000644694432200013C022A1FD107240F27CE
:1005D0001C40A400A740DA0892008218166ABE43A5
:1005E0000F69A7403E43166203245E00B440826850
:1005F000A243CC68B440224382606246D206D20F46
:100600009A404468AC432243426001E0012CEBD99C
:10061000032634005D00AC406246E4433240AA4009
:10062000076827403A430260C26814408A68AA40BB
:1006300014436246C460D2004DD50125284C0F27D3
:10064000626B2A431D003540AD00AF406263254A0E
:100650009C08A400A418A268BA43A0270292FF0530
:100660000022B8420CD0204F0132B84208D01F4FB0
:100670000132B84204D01E4F3200B84200D0039A73
:10068000AA406746029D2A43A2601A4A009C166847
:10069000009DE4433543FF0301D435002540674600
:1006A00015605668009D3543BF0301D435002540D1
:1006B000674655609668009D3543FF0201D43500BA
:1006C000254067469560D568009E2E43BF0201D441
:1006D00025402E00D660013363E7C04600E4FFAF3B
:1006E00000100240000001400004005000080050CB
:1006F000000C005000040140F022174B30B5D968BF
:1007000011420BD000230121144802688A431A4386
:100710000260006808405840084030BD8021C02277
:100720009D6B49050E4C52010D420AD023681A40B8
:10073000C0235B019A42E5D10A4BC01843424341B2
:10074000E1E79D6B294399632168074C0A40996B47
:1007500021409963ECE7C0460010024000200240AF
:10076000007000400040FFFFFFFFFFEFF0B503689F
:1007700085B00400DB074ED423689B0700D59FE0BB
:100780002368DB0635D50C23BC4DEA681A4200D03D
:10079000E9E02B689B0502D5E369002B50D0E022ED
:1007A0006B68606A12021340984200D8C9E0FFF7F4
:1007B000A3FF002844D16B68B14A1340626A134317
:1007C0006B606A68236A12021B06120A13436B608D
:1007D000636AEA68590B802301311B028B401206C1
:1007E000A849120F8A5C0020D340A74A1360FFF784
:1007F0003DFE23681B0700D5ECE023685B0700D5AE
:100800000FE123689B0600D590E1A16A002900D082
:10081000C0E1002015E00C21984DEB680B40082B3F
:1008200008D08023EA685B020A408A420BD1EA685A
:100830001A4208D02B689B039ED56368002B9BD17E
:10084000012005B0F0BD62689A4212D12A681343B4
:100850002B60FFF737FE80260700B6022B68334275
:1008600000D089E7FFF72EFEC01B6428F6D90320CD
:10087000E7E7A021C9028A4205D180222968D20275
:100880000A432A60E2E72968804801402960296814
:100890000B400393039B7E492B680B402B60002A7F
:1008A000D7D1FFF70FFE80260700B6022B68334230
:1008B00000D161E7FFF706FEC01B6428F6D9D6E732
:1008C0000C216E4DEA680A40042A06D0EB680B4002
:1008D0008B4210D1EB68DB030DD42B685B0702D58C
:1008E000E368012BACD16A6823696A491B020A409C
:1008F00013436B6044E7E2682B68002A10D009219B
:100900008B4313432B60FFF7DDFD042607002B68A4
:100910003342E8D1FFF7D6FDC01B0228F7D9A6E77E
:10092000012293432B60FFF7CDFD042607002B68BF
:10093000334200D124E7FFF7C5FDC01B0228F6D9DA
:1009400095E76B684E4A134003436B606A68236AFD
:1009500012021B06120A13436B60FFF7CDFE00283C
:1009600000D135E76CE7E369002B20D080232A68AB
:100970005B0013432B60FFF7A5FD80260700B60040
:100980002B6833420DD06B683D4A1340626A1343B3
:100990006B606A68236A12021B06120A13436B60BB
:1009A00027E7FFF78FFDC01B0228E9D95FE72B6817
:1009B000394A802613402B60FFF784FD0700B600FC
:1009C0002B68334200D114E7FFF77CFDC01B0228DF
:1009D000F6D94CE762690123284D002A10D02A6D10
:1009E000022613432B65FFF76DFD07002B6D334285
:1009F00000D002E7FFF766FDC01B0228F6D936E7F4
:100A00002A6D02269A432A65FFF75CFD07002B6DCD
:100A1000334200D1F1E6FFF755FDC01B0228F6D99D
:100A200025E780230021154D5B05AA6B00911A4232
:100A300004D1AA6B1343AB63012300938027174EA5
:100A40007F0033683B4208D08022A3685200934263
:100A500026D12A6D13432B6547E033683B4333604F
:100A6000FFF730FD019033683B42EDD1FFF72AFDDF
:100A7000019BC01A6428F6D9F9E6C046001002406E
:100A8000FF1FFFFF781B000800000020FFFFFEFF94
:100A9000FFFFFBFFFFE0FFFFFFFEFFFF00700040D6
:100AA000002B16D12B6D604A802713402B652B6DD0
:100AB0005E4ABF0013402B65FFF704FD06002B6D57
:100AC0003B422AD0FFF7FEFC594B801B9842F6D9D7
:100AD000CDE6A021C9008B420DD18023296DDB001A
:100AE0000B432B652B6D1A432A65FFF7EBFC802720
:100AF0000600BF000EE02B6D4B4A13402B652B6D9B
:100B00004A4A1340A7E7FFF7DDFC494B801B984298
:100B100000D9ACE62B6D3B42F5D0009B012B00D0F9
:100B20006FE6AB6B434A1340AB636AE6A1690123EE
:100B3000414D424A002918D0A96802261943A960EC
:100B4000696B0B436B638023116A9B010B43136238
:100B5000FFF7B8FC0700AB68334200D055E6FFF75B
:100B6000B1FCC01B0228F6D981E6A9680226994388
:100B7000A960136A32490B401362FFF7A3FC070018
:100B8000AB68334200D140E6FFF79CFCC01B022853
:100B9000F6D96CE60C22284D0120EB6813409342F5
:100BA00000D14EE62B68274A13402B6002292BD137
:100BB000FFF788FC80260700B6042B6833421DD15E
:100BC000216BE36AEA680B431F490A401343626BD7
:100BD00080241343EB6080232A685B0413432B605B
:100BE000FFF770FC0600A4042B68234200D010E637
:100BF000FFF768FC801B0228F6D938E6FFF762FC95
:100C0000C01B0228D9D932E6FFF75CFC802406001D
:100C1000A4042B68234200D1FBE5FFF753FC801BA3
:100C20000228F6D923E6C046FFFEFFFFFFFBFFFFC9
:100C300088130000FFFFFFEF00100240000001409A
:100C4000FFDFFFFFFFFFFFFEFFFF02FF0C22184B3D
:100C500010B5D9680A40082A26D00C2A06D0042AE2
:100C60001AD11B68DB0621D4124810BD8A02124833
:100C7000120F825C0902D868890F0131C00304D5C4
:100C80000E485043FFF75CFAEFE71B68DB0601D51F
:100C90000B48F6E70748F4E780205B6800021B0476
:100CA0005B0F01339840E0E70448DEE70448DCE7E7
:100CB000001002400024F400901B000800127A008B
:100CC00000093D00F7B50122534C0600236801914D
:100CD00013408B4228D33268930731D4D30737D4DB
:100CE0000123226801991A40914200D285E03268BE
:100CF0004A4C530700D587E0130706D5E2683369ED
:100D00004749DB000A401343E360FFF79FFFE368B6
:100D1000444A1B061B0FD35CD840434B186000208D
:100D2000FFF7A4FB00200AE02368019993430B43DB
:100D3000236023681340019A9A42CCD00120FEBD63
:100D4000F0203649CB688343B0680343CB60C5E7E6
:100D5000324D72682B68022A19D19B03EED503210C
:100D6000EB688B431343EB60FFF7ACFB7368070042
:100D7000022B19D10C22EB681340082BB0D0FFF7DF
:100D8000A1FB2A4BC01B9842F4D90320D7E7032AC2
:100D900002D19B01E3D4D1E7012A02D15B07DED463
:100DA000CCE79B05DBD4C9E7032B0CD10C22EB6805
:100DB0001340934200D193E7FFF784FB1B4BC01B0A
:100DC0009842F3D9E1E7012B11D00C22EB681342D2
:100DD00000D185E7FFF776FB144BC01B9842F4D98E
:100DE000D3E7FFF76FFB114BC01B9842CDD80C2205
:100DF000EB681340042BF4D172E722689A43226017
:100E000022681A429AD172E7E36809490B40F168F7
:100E10000B43E36070E7C046002002400010024030
:100E2000FFC7FFFF781B00080000002088130000A8
:100E3000FFF8FFFF014B18687047C0460000002014
:100E4000044B054ADB685B055B0FD35C034A106803
:100E5000D840704700100240881B000800000020A6
:100E6000044B054ADB689B045B0FD35C034A1068A4
:100E7000D840704700100240881B00080000002086
:100E80008223F7B502681B0105001A4247D0802370
:100E900000215F4C5B05A26B00911A4204D1A26B4A
:100EA0001343A3630123009380275A4E7F003368C6
:100EB0003B426DD06968C02208002368920313404A
:100EC0001040834203D1A8680240934209D0C02356
:100ED0000A009B021A409A4203D1236801209B0317
:100EE00066D4C022236D9202134062D16968C02388
:100EF0000A009B021A409A4207D1236846480340E1
:100F0000C020800301400B432360236D1A43009BE4
:100F10002265012B03D1A36B404A1340A3632B68C6
:100F2000DA0706D503203A49CA6C8243E8680243CF
:100F3000CA649A0706D50C203549CA6C82432869D1
:100F40000243CA645A0706D531493548CA6C024083
:100F500068690243CA641A0706D52D493148CA6C2C
:100F60000240A8690243CA645A0606D528492E4899
:100F7000CA6C0240286A0243CA6400201B0617D5C7
:100F8000234A2A49D36C0B40E9690B43D3640FE031
:100F900033683B433360FFF795FA019033683B4277
:100FA00088D1FFF78FFA019BC01A6428F6D9032075
:100FB000FEBD11408B4202D02968890608D4A96879
:100FC0000A40934200D191E72B681B0500D48DE7BE
:100FD0008022216D206D120302432265226D144B85
:100FE00014480B40024022652365CB0500D47DE701
:100FF000FFF768FA80270600BF00236D3B4200D050
:1010000074E7FFF75FFA0C4B801B9842F5D9CEE7E7
:101010000010024000700040FFFFCFFFFFFFFFEF16
:10102000FFF3FFFFFFCFFFFFFFFFFFFBFFFFF3FF1C
:10103000FFFFFCFFFFFFF7FF8813000070B50828D3
:1010400000D1B5E010D8022800D187E0042800D1F3
:1010500094E001280ED10321624AD36C0B4000D0EA
:101060006BE0FFF7FDFE24E020280BD004D8102809
:1010700000D1ADE000201CE0402836D080231B01C9
:101080009842F7D1C02580205649AD020B6D0A6DFC
:1010900040022A40824203D19805C00FC00308E0F5
:1010A0008024A402A24205D102200340181E00D0D1
:1010B0004D4870BD0020AA42FBD10B682342F8D0F6
:1010C000C0220B6880219203134089038B4208D011
:1010D000934200D184E080225203934203D14348DB
:1010E000E7E74348E5E74348E3E780203D4BC0049A
:1010F000DA6C10401AD11A689201DAD5DA683E48E3
:10110000D9689202120F805C0902DA68890F0131F6
:10111000D20307D41B68DB0606D4384B5843FFF7CD
:101120000FF8C6E7364BF9E7324BF7E702229B6828
:101130001340181EBDD03348BBE7022B03D1136800
:101140000422134026E0012B02D1FFF77FFDB0E718
:101150000020032BADD1106D80059EE70C21214AA4
:10116000D36C0B4002D1FFF76BFEA2E7082BE6D051
:10117000042BEAD000200C2B9BD1ECE7C021194AAC
:101180000901D36C0B40EED080242401A34206D188
:1011900013680340181E00D18BE7184889E78020A8
:1011A000C0008342D1D000208B4200D081E7D2E73B
:1011B000C0210C4A8901D36C0B40D4D08021890115
:1011C0008B42BCD080225201934200D052E7BCE750
:1011D000044B986B8023DB03184000D169E7C2E71A
:1011E000094866E7001002408890000080841E00D5
:1011F00040420F0000093D00901B00080024F4004D
:1012000000127A00006CDC0220A10700F8B505008E
:101210000368826800691968024368697E4E024368
:10122000E86902437D4801400A431A605A687C49D4
:101230000A40E9680A435A60A969B34201D02A6AA0
:1012400011439A68774802400A439A60764A93426B
:1012500017D10322754BDB6C1340754AD45C022016
:10126000FFF7ECFE2F680300B7425FD1082C00D9CE
:10127000D0E02000FEF75AFF2ACE32CE52CECECE9C
:1012800055006C4A934205D10C22684BDB6C13402D
:10129000694AE3E71024B342E1D1C0228021634BC5
:1012A0001201DB6CC90013400C3C8B42D7D004D830
:1012B0000024A342D3D01024D1E7802102240901C5
:1012C0008B42CCD006349342C9D0F4E7FFF7B8FD87
:1012D00000240300A04206D12000F8BD534B1B6838
:1012E000DB0621D4554B03216A68012451439942FE
:1012F000F2D811039942EFD300275608190E1802AD
:10130000801979413B00FEF7A7FF4D4BC2184D4BAA
:101310009A42E1D82B68D8600024DDE7FFF796FCFD
:10132000D6E780231B02DEE7474BDCE78022E96932
:10133000120291423FD1082C3AD82000FEF7F6FE67
:10134000050F17383038383833006A685B001100F1
:1013500050081818FEF7F4FE002480B216E0FFF7DC
:101360007FFD6B6840005B08C0186968F2E72F4B8F
:1013700069681C68102348081C4002D0334BC01811
:10138000E8E7334BC018FEF7DBFE80B20F23020004
:101390009A43130000072A68400F1843D0609BE768
:1013A000FFF754FCDDE76B68580880235B02DBE73E
:1013B00001240020EAE7082C2CD82000FEF7B6FE16
:1013C000050F122A222A2A2A2500FFF739FD69680B
:1013D0004B081818FEF7B4FE80B2F8609CE7FFF7E0
:1013E0003FFDF4E7114B69681C68102348081C4056
:1013F00001D0154BEDE7114BC018FEF7A1FE80B2EE
:10140000F86069E7FFF722FCE1E7802369681B02C7
:101410004808DEE701245FE700480040F369FFEF7A
:10142000FFCFFFFFFFF4FFFF003801400010024034
:10143000481B0008004400404C1B00080024F40036
:1014400000FDFFFFFFFC0F0000093D0000127A00C5
:101450000048E801436A30B5DA0706D50168284C30
:101460004A682240846A22434A609A0706D5016886
:10147000244C4A682240C46A22434A605A0706D56F
:101480000168214C4A682240046B22434A601A07D3
:1014900006D501681D4C4A682240446B22434A60CD
:1014A000DA0606D501681A4C8A682240846B22430A
:1014B0008A609A0606D50168164C8A682240C46B79
:1014C00022438A605A0610D50168134D4A68046C9D
:1014D0002A4022434A6080225203944205D14A683E
:1014E0000E4C2240446C22434A601B0606D502681B
:1014F0000B4953680B40816C0B43536030BDC046B1
:10150000FFFFFDFFFFFFFEFFFFFFFBFFFF7FFFFF72
:10151000FFEFFFFFFFDFFFFFFFFFEFFFFFFF9FFF7B
:10152000FFFFF7FFF8B504000E0015001F0022684A
:10153000D36933409B1B59424B41AB4201D0002041
:1015400018E0069B0133F3D0069B002B13D12368D0
:101550000C491A6803200A401A609A68A331FF31C7
:101560008A439A602200202369321370537000234B
:1015700068342370F8BDFEF7A5FF069BC01B8342AD
:10158000D5D2E4E75FFEFFFFF0B5070085B0039317
:1015900069373B7804000D0016000220202B46D14D
:1015A0000138002943D0002A41D08023A2685B0182
:1015B0009A4204D12369002B01D1014237D1230083
:1015C00068331A780220012A31D001221A700023D0
:1015D000E36621333B70FEF775FF230050331E8016
:1015E0005E80802602907601210052310A8892B2F4
:1015F000002A0DD1039B402100932000029BFFF79E
:1016000091FF002812D1202368343B7020700EE037
:101610000B880022013B9BB20B80039B802100932F
:101620002000029BFFF77EFF002802D0032005B0B8
:10163000F0BDA3682268B34208D12369002B05D10D
:101640002B880235DB05DB0D9362CDE72B78013566
:101650009362C9E7F0B51F0003006A3316001A78D9
:10166000040085B00D000220202A39D1013800295C
:1016700036D0002E34D08022A1685201914204D18C
:101680002269002A01D105422AD12200683211784C
:101690000220012924D0012111700022E2662232A9
:1016A0001A70FEF70FFF23008021A26858331E80B6
:1016B0005E800390490104338A4215D12269002AD1
:1016C00010D1234A1A801E8822005A32108880B214
:1016D000002819D1230020226A3368341A70207040
:1016E00005B0F0BDFF22EDE7002A04D12269002AEF
:1016F000F8D07F22E6E7802149058A42E3D12269BA
:10170000002AF6D03F22DDE713882021013B9BB25F
:10171000138020000097039B0022FFF703FF00289F
:1017200013D1A2682368110080225201914207D18F
:101730002269002A04D15B6A33402B800235C3E75B
:101740005B6A33402B700135BEE70320C8E7C04613
:10175000FF01000073B500260400C666FEF7B2FE66
:10176000236805001B681B0717D423681B685B07E9
:101770000AD580210F4B00220093C9032B002000C3
:10178000FFF7D0FE002813D1220020230020693269
:1017900068341370537020700BE08021054B3200C9
:1017A0000093890303002000FFF7BCFE0028DCD073
:1017B000032076BDFFFFFF0170B5041E01D101209B
:1017C00070BD050069352B78DBB2002B04D1020017
:1017D0006832137000F0F0F82423012122682B7086
:1017E00013688B431360636A002B02D02000FFF75D
:1017F00031FE2000FFF70AFD0128E0D023680849E8
:101800005A6820000A402A215A609A688A439A60DE
:10181000012219680A431A60FFF79CFFD0E7C0460F
:10182000FFB7FFFF10B50400FEF76EFC642382B221
:1018300021000248FFF7A8FE10BDC046240000208A
:101840002049214A0B6810B51A4080231B0113431D
:101850000B6010239CB0A0220E93012400231202DF
:101860000EA81594169317921893FEF77FFF011E8A
:1018700000D0FEE70F230190029003900490684689
:101880000093FFF71FFA002800D0FEE7089005A894
:101890000594FFF7F5FA041E00D0FEE7FFF7CAFA39
:1018A000FA218900FEF74CFCFEF742FE0420FEF709
:1018B00059FE0120220021004042FEF709FE1CB023
:1018C00010BDC04600700040FFE7FFFF30B58FB08D
:1018D000FEF7E0FDFFF7B4FF0220214A214CD16A58
:1018E0000143D162D36A0C2203400093009B1E4B3C
:1018F0002000236096239B01636000236261A36044
:10190000E3602361A361E36123626362FFF754FF35
:10191000002800D0FEE71548FA25FFF783FFAD0049
:1019200000211C2207A8069100F0F5F82B002022C8
:1019300006A92000FFF78EFE0D49082201A800F03D
:10194000E1F801A906A800F0EEF80028E8D10C2281
:10195000084903A800F0D6F803A8FFF763FFDFE704
:10196000001002402400002000380140591B0008EC
:10197000641B00086C1B000801220E4B10B5596B4C
:1019800005200A435A638022996B52050A439A63E1
:10199000002240421100FEF79BFD002202201100B0
:1019A0004042FEF795FD0022012011004042FEF763
:1019B0008FFD10BD001002407FB50C4B02689A42AB
:1019C00012D180230A4ADB01516B0A480B4353634F
:1019D000C0230193BE3B02930322002301A903937A
:1019E00004920593FEF7D2FD07B000BD0038014018
:1019F00000100240000400507047FEE77047704737
:101A000010B5FEF757FDFEF7BCFD10BD8022104B50
:101A1000520019680A431A60DA680E490A40DA600F
:101A20001A680D490A4001211A609A688A439A602F
:101A30001A680A490A401A60DA6809490A40DA60F5
:101A400000221A618022074B12059A607047C04637
:101A5000001002400C40FF88F6FFF6FEFFFFFBFF80
:101A6000FFFF02FF00ED00E00D488546002103E086
:101A70000C4B5B58435004310B480C4B42189A42B4
:101A8000F6D30B4A02E0002313600432094B9A425A
:101A9000F9D3FFF7BBFF00F011F8FFF717FFFEE7E0
:101AA00000200020AC1B00080000002004000020E3
:101AB0000400002094000020FEE7000070B500261E
:101AC0000C4D0D4C641BA410A64209D1002600F059
:101AD0002FF80A4D0A4C641BA410A64205D170BD14
:101AE000B300EB5898470136EEE7B300EB58984740
:101AF0000136F2E7A41B0008A41B0008A41B000881
:101B0000A81B0008002310B59A4200D110BDCC5C80
:101B1000C4540133F8E703008218934200D17047A0
:101B200019700133F9E710B5FEF7F5FA10BD0000A2
:101B3000F8B5C046F8BC08BC9E467047F8B5C0462C
:081B4000F8BC08BC9E4670478A
:101B480001040208001010100410101002101010E8
:101B58000857656C636F6D65210D0A0068656C6CCC
:101B68006F210D00476F6F6420627965210D0A00AF
:101B78000000000000000000010203040607080935
:101B88000000000001020304030406080C101820DA
:041B98003000000019
:081B9C00FCE6FF7F01000000E0
:041BA400E90000084C
:041BA800C100000870
:041BAC0080841E0013
:0400000508001A696C
:00000001FF
